:100000000C9462000C94EA080C94C3080C948A00C7
:100010000C948A000C948A000C948A000C948A0038
:100020000C948A000C948A000C948A000C948A0028
:100030000C948A000C948A000C948A000C948A0018
:100040000C9479080C948A000C9437090C941109CB
:100050000C948A000C948A000C948A000C948A00F8
:100060000C945A070C948A0000000000240027001A
:100070002A0000000000250028002B0000000000DE
:1000800023002600290004040404040404040202DA
:100090000202020203030303030301020408102007
:1000A0004080010204081020010204081020000012
:1000B0000008000201000003040700000000000027
:1000C0000000690911241FBECFEFD8E0DEBFCDBF0D
:1000D00012E0A0E0B1E0E2ECF1E202C005900D9286
:1000E000AC38B107D9F724E0ACE8B2E001C01D920A
:1000F000A733B207E1F710E0C2E6D0E004C02197D1
:10010000FE010E94D910C136D107C9F70E94AA0981
:100110000C94DF100C94000020910F03260F33275E
:10012000331F21323105ECF420915A03FC0190E099
:1001300080E0243069F082E00895A0910F032191BE
:10014000AC0143515D4FA40FB52FB11D2C93019607
:10015000861798F380910F03680F60930F0380E078
:10016000089581E00895089508950895E091EB02BF
:100170008091EA02E81730F4F0E0E653FD4F808109
:1001800090E008958FEF9FEF08959091EB0280919A
:10019000EA022FEF3FEF981748F4E92FF0E0E6531B
:1001A000FD4F208130E09F5F9093EB02C9010895DD
:1001B0008091EA029091EB02891B990B0895CF92EE
:1001C000DF92EF92FF920F931F93CF93DF937C0107
:1001D000CB018A0120916003222389F0EB016B019E
:1001E000C40ED51ECC15DD0569F06991D701ED91DE
:1001F000FC910190F081E02DC7010995F3CF642FA8
:100200000E948C00C801DF91CF911F910F91FF9048
:10021000EF90DF90CF900895CF93DF931F92CDB7EB
:10022000DEB76983209160032223F9F020918303D4
:10023000203258F021E030E0FC013383228390E04B
:1002400080E00F90DF91CF91089580916103E82FB6
:10025000F0E0EE59FC4F998190838F5F80936103AA
:100260008093830381E090E0ECCF61E0CE010196C2
:100270000E948C00F7CF833081F028F4813099F010
:100280008230A9F008958730A9F08830C9F0843011
:10029000B1F4809180008F7D03C0809180008F77C2
:1002A00080938000089584B58F7784BD089584B5C8
:1002B0008F7DFBCF8091B0008F778093B000089541
:1002C0008091B0008F7DF9CFCF93DF93282F30E05E
:1002D000F901E255FF4F8491F901E656FF4FD491A1
:1002E000F901EA57FF4FC491CC23A1F081110E947C
:1002F0003B01EC2FF0E0EE0FFF1FE458FF4FA591FC
:10030000B491EC91ED2381E090E009F480E0DF917D
:10031000CF91089580E090E0FACF1F93CF93DF93C1
:10032000282F30E0F901E255FF4F8491F901E6569C
:10033000FF4FD491F901EA57FF4FC491CC23A9F0A4
:10034000162F81110E943B01EC2FF0E0EE0FFF1FF2
:10035000EE58FF4FA591B4918FB7F894EC9111111D
:1003600008C0D095DE23DC938FBFDF91CF911F9122
:100370000895DE2BF8CF10925A0381E08093590341
:100380001092340361E082E10E948D0161E083E11B
:100390000E948D01E9EBF0E080818E7F8083808177
:1003A0008D7F808388E48093B80085E48093BC00CF
:1003B0000895CF93DF9391E09093EC028823B9F0F6
:1003C000C091B800D091BA008091BC008A7B809324
:1003D000BC0060E082E10E948D0160E083E10E9448
:1003E0008D010E94BB01D093BA00C093B800DF9189
:1003F000CF910895CF93DF9390E0FC01E656FF4F35
:1004000024918A579F4FFC0184918823C9F090E082
:10041000880F991FFC01E859FF4FA591B491FC0189
:10042000EE58FF4FC591D49161110DC09FB7F8945C
:100430008C91209582238C938881282328839FBFC9
:10044000DF91CF910895623051F49FB7F8943C91B9
:10045000822F809583238C93E8812E2BEFCF8FB74B
:10046000F894EC912E2B2C938FBFEACFCF93DF9390
:10047000EC0161E086E00E94FA01209731F460E02F
:1004800086E0DF91CF910C948D01CF3FD10511F41F
:1004900061E0F6CFE4EBF0E0E491E33029F140F4E1
:1004A000E130B1F0E230D9F0C038D1058CF7E7CFB8
:1004B000E73021F1E83051F1E430B1F7809180006C
:1004C000806280938000D0938B00C0938A0004C028
:1004D00084B5806884BDC7BDDF91CF91089584B590
:1004E000806284BDC8BDF8CF809180008068809311
:1004F0008000D0938900C0938800EECF8091B00037
:1005000080688093B000C093B300E6CF8091B000C4
:1005100080628093B000C093B400DECF8E508064C0
:1005200080937C0080917A00806480937A0080912F
:100530007A0086FDFCCF8091780090917900089533
:100540003FB7F8948091C6029091C702A091C8026B
:10055000B091C90226B5A89B05C02F3F19F001969E
:10056000A11DB11D3FBFBA2FA92F982F8827BC010D
:10057000CD01620F711D811D911D42E0660F771F35
:10058000881F991F4A95D1F70895CF92DF92EF9275
:10059000FF920F931F93CF93DF93D091830381E05A
:1005A000D13208F09CC0C09182030E94A0026B016E
:1005B0007C0180915A0381116CC082E080935A03C0
:1005C00081E0809359038FEF809358031092570373
:1005D000D0935603A2E6B3E0E6E3F3E080E0D8135D
:1005E0008DC01092350380913503CC0FC82BC0937A
:1005F000350380913403813009F084C010923403B4
:100600000E94A0026B017C01809135038093BB00A6
:1006100080915C0390915D03A0915E03B0915F03B4
:10062000892B8A2B8B2BA1F00E94A00200915C03E6
:1006300010915D0320915E0330915F036C197D0979
:100640008E099F09061717072807390708F442C0C3
:100650008091BC0083FDD8CF85EC8093BC000E94C4
:10066000A0026B017C0180915A03823009F44CC0D6
:10067000809158038F3F09F469C0809158038032FC
:1006800009F466C080915803803309F463C084E0A4
:1006900026C080915C0390915D03A0915E03B091B0
:1006A0005F03892B8A2B8B2B09F483CF0E94A00236
:1006B00000915C0310915D0320915E0330915F0314
:1006C0006C197D098E099F09061717072807390736
:1006D00008F06FCF80915B030E94D90185E01092F2
:1006E00061031092830310926003DF91CF911F91F9
:1006F0000F91FF90EF90DF90CF9008959D9191938F
:100700008F5F6DCF85EEA9CF80915C0390915D03E3
:10071000A0915E03B0915F03892B8A2B8B2B09F488
:10072000A2CF0E94A00200915C0310915D03209172
:100730005E0330915F036C197D098E099F090617CE
:1007400017072807390708F08ECFC4CF80E0C7CF3E
:1007500082E0C5CF83E0C3CFCF93DF93EC0181E08C
:10076000809360038EE38093820310926103109262
:100770008303688184E893E00E940C01698184E826
:1007800093E00E940C01DF91CF910C94C502CF93AE
:10079000C62F91E09093600392E6909382031092AB
:1007A000610310928303682F84E893E00E940C0198
:1007B0006C2F84E893E00E940C01CF910C94C50249
:1007C0008F929F92AF92BF92CF92DF92EF92FF9261
:1007D0004B015C010E94A0026B017C010E94A002FF
:1007E0006C197D098E099F09683E7340810591054A
:1007F000A8F321E0821A9108A108B10888EEC80E7A
:1008000083E0D81EE11CF11C81149104A104B10401
:1008100029F7FF90EF90DF90CF90BF90AF909F901F
:100820008F9008952FB7F8946091C2027091C3021F
:100830008091C4029091C5022FBF08950895AF9290
:10084000BF92CF92DF92EF92FF920F931F93CF93BD
:10085000DF936C017B018B01040F151FEB015E011F
:10086000AE18BF08C017D10759F06991D601ED91B4
:10087000FC910190F081E02DC6010995892B79F753
:10088000C501DF91CF911F910F91FF90EF90DF9005
:10089000CF90BF90AF900895CF93DF938091B40233
:1008A0009091B502A091B602B091B7020196A11D38
:1008B000B11D8093B4029093B502A093B602B09399
:1008C000B70282E00E946401EC0190938F02809352
:1008D0008E0280918C0290918D02892B59F4C13047
:1008E000D10541F484E00E946401892B51F481E038
:1008F00080939502D0938D02C0938C02DF91CF91AB
:10090000089510929502F6CFCF93DF938091B802AD
:100910009091B902A091BA02B091BB020196A11DBB
:10092000B11D8093B8029093B902A093BA02B0931C
:10093000BB0283E00E946401EC01909393028093D8
:1009400092028091900290919102892B59F4C130CA
:10095000D10541F485E00E946401892B51F481E0C6
:1009600080939402D0939102C0939002DF91CF9133
:10097000089510929402F6CFFC01538D448D252FDB
:1009800030E0842F90E0821B930B541710F0CF9629
:10099000089501970895FC01918D828D981761F05B
:1009A000A28DAE0FBF2FB11D5D968C91928D9F5F72
:1009B0009F73928F90E008958FEF9FEF0895FC0151
:1009C000918D828D981731F0828DE80FF11D858D04
:1009D00090E008958FEF9FEF0895FC01918D228D97
:1009E000892F90E0805C9F4F821B91098F7399271C
:1009F000089580E993E00E94ED0421E0892B09F439
:100A000020E0822F089580E090E0892B29F00E9459
:100A1000F90481110C9400000895FC01A48DA80F25
:100A2000B92FB11DA35ABF4F2C91848D90E0019630
:100A30008F739927848FA689B7892C93A089B18950
:100A40008C91837080648C93938D848D981306C0F1
:100A50000288F389E02D80818F7D80830895EF9255
:100A6000FF920F931F93CF93DF93EC0181E0888F68
:100A70009B8D8C8D98131AC0E889F989808185FF38
:100A800015C09FB7F894EE89FF896083E889F989DA
:100A900080818370806480839FBF81E090E0DF91DC
:100AA000CF911F910F91FF90EF900895F62E0B8D2F
:100AB00010E00F5F1F4F0F731127E02E8C8D8E11EA
:100AC0000CC00FB607FCFACFE889F989808185FF51
:100AD000F5CFCE010E940D05F1CFEB8DEC0FFD2F70
:100AE000F11DE35AFF4FF0829FB7F8940B8FEA890C
:100AF000FB8980818062CFCFCF93DF93EC01888D1B
:100B00008823B9F0AA89BB89E889F9898C9185FD88
:100B100003C0808186FD0DC00FB607FCF7CF8C9116
:100B200085FFF2CF808185FFEDCFCE010E940D05BC
:100B3000E9CFDF91CF910895CF93DF9300D0CDB768
:100B4000DEB790E899838A83CE0101960E94AC03B8
:100B50000F900F90DF91CF910895CF93DF9300D046
:100B6000CDB7DEB780E489836A83CE0101960E9407
:100B7000AC0381E090E00F900F90DF91CF9108954A
:100B8000089590E080E0089585ED8093BC00809109
:100B90005C0390915D03A0915E03B0915F030796A3
:100BA000A11DB11D23E0B695A795979587952A9528
:100BB000D1F72091BC0024FD03C010925A03089580
:100BC00040915C0350915D0360915E0370915F03FF
:100BD000452B462B472B69F30097A105B10541F042
:100BE00025E32A95F1F700000197A109B109E1CFAA
:100BF00080915B030C94D901FB0101900020E9F77F
:100C00003197AF01461B570BDC01ED91FC9102803F
:100C1000F381E02D09948F929F92AF92BF92EF9251
:100C2000FF920F931F93CF93DF93CDB7DEB7A197BA
:100C30000FB6F894DEBF0FBECDBF7C01FA01CB0129
:100C400019A2223008F42AE08E010F5D1F4F822E78
:100C5000912CB12CA12CBF01A50194010E945D0E25
:100C6000F901CA016A300CF5605DD8016E938D01FF
:100C7000232B242B252B79F790E080E0109721F08F
:100C8000BD01C7010E94FC05A1960FB6F894DEBF16
:100C90000FBECDBFDF91CF911F910F91FF90EF90CD
:100CA000BF90AF909F908F900895695CDECFCF93F7
:100CB000DF93BC0180E993E00E94FC05EC0164E352
:100CC00071E080E993E00E94FC058C0F9D1FDF918D
:100CD000CF9108950C94FC052F923F924F925F9212
:100CE0006F927F928F929F92AF92BF92CF92DF923C
:100CF000EF92FF921F93CF93DF93EC016A017B0188
:100D0000722EAB019601CB01B6010E94C51067E3BC
:100D100071E0811126C046015701E894B7F82FEF22
:100D20003FEF4FE75FE7C501B4010E94C510811195
:100D30000CC02FEF3FEF4FE75FE7C501B4010E9402
:100D4000FB0E6BE371E0181664F02FEF3FEF4FE7F7
:100D50005FE4C701B6010E9453101816B4F46FE3A4
:100D600071E0CE01DF91CF911F91FF90EF90DF9066
:100D7000CF90BF90AF909F908F907F906F905F903B
:100D80004F903F902F900C94FC052FEF3FEF4FE7D3
:100D90005FECC701B6010E94FB0E87FDE0CF20E0AB
:100DA00030E0A901C701B6010E94FB0E312C212CB5
:100DB00087FF0DC0E881F9810190F081E02D6DE29F
:100DC000CE0109951C01F7FAF094F7F8F09410E0C1
:100DD00060E070E080E09FE3711641F020E030E0D9
:100DE00040E251E40E94000F1F5FF6CFA701960179
:100DF0000E948F0E2B013C010E94720F4B015C017F
:100E00002AE0BC01A401CE010E940B067C01E20C89
:100E1000F31C1123E1F1C501B4010E94A10F9B0154
:100E2000AC01C301B2010E948E0E4B015C01E8814E
:100E3000F9810190F081E02D6EE2CE010995E80E76
:100E4000F91E115020F120E030E040E251E4C501EC
:100E5000B4010E9458102B013C010E94720F4B01FB
:100E6000B12CA12C2AE0B501A401CE010E940B06F1
:100E7000E80EF91EC501B4010E94A10F9B01AC014F
:100E8000C301B2010E948E0E4B015C01DACFC70193
:100E9000DF91CF911F91FF90EF90DF90CF90BF90A7
:100EA000AF909F908F907F906F905F904F903F900A
:100EB0002F9008951F920F920FB60F9211242F9327
:100EC0003F934F935F936F937F938F939F93AF93D2
:100ED000BF93EF93FF938091B900887F803609F428
:100EE0004AC0F0F5883209F4A7C018F5803109F43A
:100EF0009BC0B8F4882309F4F9C0883009F494C081
:100F0000FF91EF91BF91AF919F918F917F916F91E1
:100F10005F914F913F912F910F900FBE0F901F90B7
:100F20001895883109F488C0803251F780935803AE
:100F300014C0803409F49DC040F48033B9F3883381
:100F4000F9F68093580385ECB0C0803509F485C06C
:100F5000883509F496C0883499F60E94C405D0CF2C
:100F6000883909F48CC038F5883729F050F4883670
:100F700011F0803729F683E080935A0310923303EF
:100F800057C0883809F47BC0803919F0803809F0DF
:100F9000B7CF80913303803208F071C0E091330302
:100FA00081E08E0F809333038091BB00F0E0ED5E13
:100FB000FC4F80833DC0803B39F0E0F4803A09F477
:100FC00079C0883A09F09CCF84E080935A0310924C
:100FD000100310920F03E0910D03F0910E03099599
:100FE00080910F0381110FC081E080930F03109255
:100FF000ED0209C0803C09F4A6CF883C09F4A3CFD8
:10100000883B09F07DCFE091100381E08E0F809343
:101010001003F0E0E351FD4F80818093BB0090917D
:10102000100380910F0329C0809135038093BB008A
:1010300085EC8093BC0064CF909157038091560358
:10104000981758F5E091570381E08E0F809357036E
:10105000F0E0EA5CFC4F8081E9CFE091570381E04A
:101060008E0F809357038091BB00F0E0EA5CFC4F49
:10107000808390915703809156039817C8F285E8B2
:10108000D8CFE091570381E08E0F80935703809172
:10109000BB00F0E0EA5CFC4F808380915903811132
:1010A0005CCF81E08093340384EA8093BC0010928B
:1010B0005A0326CF85EC8093BC0010925A0380918E
:1010C0003303803230F4E0913303F0E0ED5EFC4F07
:1010D00010826091330370E0E0911103F0911203EC
:1010E00083E193E00995109233030ACF10925803DD
:1010F00034CF1F920F920FB60F9211242F933F936C
:101100008F939F93AF93BF938091C2029091C3023C
:10111000A091C402B091C5023091C10223E0230F17
:101120002D3758F50196A11DB11D2093C102809362
:10113000C2029093C302A093C402B093C5028091EF
:10114000C6029091C702A091C802B091C90201964F
:10115000A11DB11D8093C6029093C702A093C8023F
:10116000B093C902BF91AF919F918F913F912F9101
:101170000F900FBE0F901F90189526E8230F029630
:10118000A11DB11DD2CF1F920F920FB60F92112445
:101190002F933F934F935F936F937F938F939F937F
:1011A000AF93BF93EF93FF93E0910201F09103019E
:1011B0000995FF91EF91BF91AF919F918F917F9191
:1011C0006F915F914F913F912F910F900FBE0F90B4
:1011D0001F9018951F920F920FB60F9211242F9304
:1011E0003F934F935F936F937F938F939F93AF93AF
:1011F000BF93EF93FF93E0910001F09101010995F6
:10120000FF91EF91BF91AF919F918F917F916F91DE
:101210005F914F913F912F910F900FBE0F901F90B4
:1012200018951F920F920FB60F9211242F933F9390
:101230004F935F936F937F938F939F93AF93BF93DE
:10124000EF93FF9380E993E00E940D05FF91EF91EA
:10125000BF91AF919F918F917F916F915F914F91CE
:101260003F912F910F900FBE0F901F9018951F92D6
:101270000F920FB60F9211242F938F939F93EF939A
:10128000FF93E091A003F091A1038081E091A60378
:10129000F091A70382FD1BC090818091A9038F5F0D
:1012A0008F732091AA03821741F0E091A903F0E027
:1012B000E057FC4F958F8093A903FF91EF919F9189
:1012C0008F912F910F900FBE0F901F9018958081D6
:1012D000F4CFE4E8F3E01382128288EE93E0A0E01A
:1012E000B0E084839583A683B78328E031E031831F
:1012F0002083E0E9F3E01382128284839583A6833E
:10130000B7838AE191E09183808385EC90E09587B3
:10131000848784EC90E09787868780EC90E0918BBF
:10132000808B81EC90E0938B828B82EC90E0958BAC
:10133000848B86EC90E0978B868B118E128E138EA9
:10134000148EEDE2F4E0138212828CE291E091833C
:1013500080830895CF93DF9300D0CDB7DEB7789424
:1013600084B5826084BD84B5816084BD85B58260AA
:1013700085BD85B5816085BD80916E00816080935B
:101380006E001092810080918100826080938100C4
:1013900080918100816080938100809180008160D4
:1013A000809380008091B10084608093B10080912F
:1013B000B00081608093B00080917A008460809357
:1013C0007A0080917A00826080937A0080917A001E
:1013D000816080937A0080917A00806880937A009F
:1013E0001092C100E091A003F091A10322E0F22E3F
:1013F000F082E0919C03F0919D031082E0919E03A6
:10140000F0919F0380E180831092A803E091A403F0
:10141000F091A50386E08083E091A203F091A303FD
:10142000808180618083E091A203F091A303808199
:1014300088608083E091A203F091A303808180689B
:101440008083E091A203F091A30380818F7D80834C
:1014500083E491E00E9457061092EB021092EA0298
:1014600010926103109283030E94BB0183EB90E012
:1014700090930E0380930D0384EB90E090931203FE
:101480008093110380913104982F986090933104D8
:10149000F092350410923604EBE3FDE03197F1F75A
:1014A00088620E949C058BE496E40197F1F7809195
:1014B000310480620E949C0583E592E00197F1F778
:1014C0008091310480620E949C0580913104806289
:1014D0000E949C0584E0809332048CE00E949C056D
:1014E00081E00E949C050BE31FE1C8010197F1F721
:1014F000F092330486E00E949C0560E080E00E9448
:10150000C7036FEF88E00E94C70360E281E00E949A
:10151000C7036FEF84E00E94C7036FEF83E00E9470
:10152000C7036FEF82E00E94C70360E084E00E947F
:10153000C70360E083E00E94C7036FEF82E00E9470
:10154000C70369E871E08DE294E00E946A0680E8D2
:10155000898380EC8A83CE0101960E94AC036AE9FC
:1015600071E08DE294E00E946A0668E873E180E031
:1015700090E00E94E00381E00E949C05C801019771
:10158000F1F761E088E00E94FA0161E086E00E94E4
:10159000FA016091BE0288E00E948D018091BC0238
:1015A0009091BD020E94360262E08EE00E94FA0134
:1015B00060E080E10E94FA0160E08FE00E94FA01A1
:1015C00060E081E10E94FA0160E085E10E94FA0199
:1015D00060E084E10E94FA0160E082E00E94FA018A
:1015E00060E084E00E94FA0160E083E00E94FA017A
:1015F00060E085E00E94FA018CE494E090930101A0
:1016000080930001809169008C7F816080936900E4
:10161000E89A84E894E0909303018093020180911A
:101620006900837F846080936900E99A88248A94A2
:1016300033E0932EA12CB12C4CE0C42ED12CE12C04
:10164000F12C01E010E898E8292E8CE8382E8EE085
:101650000E946401892BE1F56EE170E080E090E08A
:101660000E94E0038EE00E946401892B89F560915D
:10167000BE0221E062276093BE0288E00E948D01D5
:101680001092BD021092BC0268EE73E080E090E020
:101690000E94E0030093C0020093BF021092B802C0
:1016A0001092B9021092BA021092BB021092B402C8
:1016B0001092B5021092B6021092B7020E94120464
:1016C0006093B0027093B1028093B2029093B30220
:1016D0008091BF028823C1F08FE00E948E029C019E
:1016E000ABEFBFEF0E94CA10A50194010E943E0E0D
:1016F000DA01C90181509F4FAF4FBF4F9093BD0298
:101700008093BC020E9436028091C002882309F4B3
:1017100039C20E9412044090B0025090B102609011
:10172000B2027090B302641975098609970961368F
:101730007A4E8105910508F48EC06BEA71E080E96C
:1017400093E00E946A0680919502882309F470C292
:1017500065EB71E080E993E00E946A0667EC71E056
:1017600080E993E00E946A066091B4027091B5022C
:101770008091B6029091B702A70196010E945D0E7A
:10178000CA01B9010E94A10F2B013C0169EE71E071
:1017900080E993E00E946A0622E0B301A20180E999
:1017A00093E00E946C0686EF91E00E9457066BEF73
:1017B00071E080E993E00E946A0680919402882398
:1017C00009F43FC265EB71E080E993E00E946A068C
:1017D00067EC71E080E993E00E946A066091B802CC
:1017E0007091B9028091BA029091BB02A701960153
:1017F0000E945D0ECA01B9010E94A10F2B013C019C
:1018000069EE71E080E993E00E946A0622E0B3018C
:10181000A20180E993E00E946C0686EF91E00E94AD
:1018200057061092B8021092B9021092BA021092A2
:10183000BB021092B4021092B5021092B60210923E
:10184000B7020E9412046093B0027093B1028093B9
:10185000B2029093B3020E9412044090AC025090E6
:10186000AD026090AE027090AF02641975098609EE
:101870009709693E73408105910508F483C180E1B1
:101880000E948E02BC01990F880B990B0E94A30F36
:1018900020E030E040EA50E40E94581020E030E0C0
:1018A00040E85AE30E94581026E831E648E15FE339
:1018B0000E94000F2CE53FE842EC5FE30E948F0E90
:1018C0002B013C012CEE31E548EB5DE30E94FB0E61
:1018D00087FDC0C140929602509297026092980292
:1018E0007092990265E072E080E993E00E946A06D6
:1018F00040919602509197026091980270919902DE
:1019000022E080E993E00E946C066AE172E080E9DF
:1019100093E00E946A0681E10E948E02BC01990F49
:10192000880B990B0E94A30F209196023091970289
:1019300040919802509199020E94581020E030E0A6
:1019400040E85AE30E94581023EC35EF48EE5FE37D
:101950000E948E0E2B013C0120E030E0A9010E9484
:10196000FB0E87FD80C14092A8025092A9026092AE
:10197000AA027092AB026FE472E080E993E00E94E9
:101980006A066DE172E080E993E00E946A06409188
:10199000A8025091A9026091AA027091AB0222E0C4
:1019A00080E993E00E946C068AE192E00E9457066B
:1019B00060919E0270919F02072E000C880B990B7C
:1019C0000E94A30F9B01AC016091A4027091A5023B
:1019D0008091A6029091A7020E94000F2FE832EC9E
:1019E00045E150E40E948E0E6093A4027093A5021C
:1019F0008093A6029093A70269E372E080E993E0E6
:101A00000E946A064091A4025091A5026091A6022C
:101A10007091A70222E080E993E00E946C066AE1DF
:101A200072E080E993E00E946A062091A80230915A
:101A3000A9024091AA025091AB026091A402709158
:101A4000A5028091A6029091A7020E94000F20E0BB
:101A500030E048EC52E40E9458106093A00270936A
:101A6000A1028093A2029093A3026AE472E080E94B
:101A700093E00E946A0669E572E080E993E00E94C3
:101A80006A064091A0025091A1026091A202709159
:101A9000A30222E080E993E00E946C0682E792E0D4
:101AA0000E94570665E772E08DE294E00E946A06A4
:101AB000198384E88A83CE0101960E94AC03409189
:101AC000A8025091A9026091AA027091AB0222E093
:101AD0008DE294E00E946C0619832A82CE01019661
:101AE0000E94AC036AE772E08DE294E00E946A060D
:101AF00019833A82CE0101960E94AC034091A40260
:101B00005091A5026091A6027091A70222E08DE299
:101B100094E00E946C06198390EC9A83CE010196A2
:101B20000E94AC036FE772E08DE294E00E946A06C7
:101B300019832BEC2A83CE0101960E94AC034091BD
:101B4000A0025091A1026091A2027091A30222E032
:101B50008DE294E00E946C061092A4021092A502FD
:101B60001092A6021092A70210929F0210929E025B
:101B70000E9412046093AC027093AD028093AE0297
:101B80009093AF028091BE02882309F475C084E16E
:101B90000E948E02BC01990F880B990B0E94A30F23
:101BA00020E030E040EA50E40E94581020E030E0AD
:101BB00040E85AE30E9458109B01AC010E948F0E2E
:101BC00060939A0270939B0280939C0290939D0273
:101BD00020919A0230919B0240919C0250919D026B
:101BE0006091A4027091A5028091A6029091A70233
:101BF0000E948F0E6093A4027093A5028093A602A8
:101C00009093A70280919E0290919F0201969093DB
:101C10009F0280939E0280E090E0892B09F417CD0B
:101C20000E94F904882309F410CD0E9400000BCD16
:101C300062ED71E080E993E00E946A066CEC71E06D
:101C40008FCD62ED71E080E993E00E946A066CEC52
:101C500071E0C0CD109296021092970210929802F5
:101C6000109299023FCE1092A8021092A9021092EF
:101C7000AA021092AB027FCE85E18ACF052E97FB98
:101C80001EF400940E94550E57FD07D00E945D0E71
:101C900007FC03D04EF40C94550E509540953095AA
:101CA00021953F4F4F4F5F4F0895909580957095C8
:101CB00061957F4F8F4F9F4F0895A1E21A2EAA1B67
:101CC000BB1BFD010DC0AA1FBB1FEE1FFF1FA217EC
:101CD000B307E407F50720F0A21BB30BE40BF50BE9
:101CE000661F771F881F991F1A9469F76095709572
:101CF000809590959B01AC01BD01CF010895A29FF5
:101D0000B001B39FC001A39F700D811D1124911DCF
:101D1000B29F700D811D1124911D08955058BB274D
:101D2000AA270E94A60E0C9419100E940B1038F0DE
:101D30000E94121020F039F49F3F19F426F40C94FD
:101D400008100EF4E095E7FB0C940210E92F0E94B6
:101D50002A1058F3BA17620773078407950720F013
:101D600079F4A6F50C944C100EF4E0950B2EBA2FD6
:101D7000A02D0B01B90190010C01CA01A001112491
:101D8000FF27591B99F0593F50F4503E68F11A163D
:101D9000F040A22F232F342F4427585FF3CF4695CE
:101DA00037952795A795F0405395C9F77EF41F16F0
:101DB000BA0B620B730B840BBAF09150A1F0FF0FBA
:101DC000BB1F661F771F881FC2F70EC0BA0F621FA6
:101DD000731F841F48F4879577956795B795F79596
:101DE0009E3F08F0B0CF9395880F08F09927EE0F2B
:101DF0009795879508950E94DE0F08F481E0089575
:101E00000E94140F0C9419100E94121058F00E9496
:101E10000B1040F029F45F3F29F00C94021051118F
:101E20000C944D100C9408100E942A1068F399230A
:101E3000B1F3552391F3951B550BBB27AA276217C6
:101E40007307840738F09F5F5F4F220F331F441FD3
:101E5000AA1FA9F335D00E2E3AF0E0E832D0915007
:101E60005040E695001CCAF72BD0FE2F29D0660FF4
:101E7000771F881FBB1F261737074807AB07B0E837
:101E800009F0BB0B802DBF01FF2793585F4F3AF03D
:101E90009E3F510578F00C9402100C944D105F3F5A
:101EA000E4F3983ED4F3869577956795B795F795C3
:101EB0009F5FC9F7880F911D9695879597F90895AB
:101EC000E1E0660F771F881FBB1F62177307840747
:101ED000BA0720F0621B730B840BBA0BEE1F88F756
:101EE000E09508950E94321088F09F5798F0B92F1E
:101EF0009927B751B0F0E1F0660F771F881F991F3F
:101F00001AF0BA95C9F714C0B13091F00E944C1084
:101F1000B1E008950C944C10672F782F8827B85F94
:101F200039F0B93FCCF3869577956795B395D9F796
:101F30003EF490958095709561957F4F8F4F9F4FA0
:101F40000895E89409C097FB3EF4909580957095AC
:101F500061957F4F8F4F9F4F9923A9F0F92F96E9F5
:101F6000BB279395F695879577956795B795F1116A
:101F7000F8CFFAF4BB0F11F460FF1BC06F5F7F4F07
:101F80008F4F9F4F16C0882311F096E911C0772319
:101F900021F09EE8872F762F05C0662371F096E822
:101FA000862F70E060E02AF09A95660F771F881FF1
:101FB000DAF7880F9695879597F90895990F000895
:101FC000550FAA0BE0E8FEEF16161706E807F9070B
:101FD000C0F012161306E407F50798F0621B730BA6
:101FE000840B950B39F40A2661F0232B242B252B27
:101FF00021F408950A2609F4A140A6958FEF811DCA
:10200000811D089597F99F6780E870E060E008956A
:102010009FEF80EC089500240A9416161706180600
:102020000906089500240A941216130614060506DC
:102030000895092E0394000C11F4882352F0BB0F6D
:1020400040F4BF2B11F460FF04C06F5F7F4F8F4FD0
:102050009F4F089557FD9058440F551F59F05F3F0B
:1020600071F04795880F97FB991F61F09F3F79F0BA
:1020700087950895121613061406551FF2CF46953C
:10208000F1DF08C0161617061806991FF1CF8695BE
:102090007105610508940895E894BB2766277727A2
:1020A000CB0197F908950E94DE0F08F48FEF089591
:1020B0000E946B100C9419100E940B1038F00E94B3
:1020C000121020F0952311F00C9402100C940810BB
:1020D00011240C944D100E942A1070F3959FC1F3A7
:1020E000950F50E0551F629FF001729FBB27F00DC6
:1020F000B11D639FAA27F00DB11DAA1F649F66271B
:10210000B00DA11D661F829F2227B00DA11D621F69
:10211000739FB00DA11D621F839FA00D611D221F23
:10212000749F3327A00D611D231F849F600D211D07
:10213000822F762F6A2F11249F5750409AF0F1F08A
:1021400088234AF0EE0FFF1FBB1F661F771F881FF3
:1021500091505040A9F79E3F510580F00C94021019
:102160000C944D105F3FE4F3983ED4F38695779539
:102170006795B795F795E7959F5FC1F7FE2B880F99
:10218000911D9695879597F908950E94DE0F880B0B
:10219000990B08950E947F0E332312F48A1B9B0B28
:1021A0000C94D4100E947F0EB7FF0895821B930BEE
:1021B0000895EE0FFF1F0590F491E02D0994F89417
:0221C000FFCF4F
:1021C2001E041E04000000000C01DF00C105B50062
:1021D200D800C500B600000000002F051F04BC0493
:1021E2007C05ED04CB04DF0400000000AD051F04F4
:1021F200C105C0050D0A006E616E00696E66006F52
:102202007666004D6F6E69746F72616D656E746F84
:10221200206461206566696369C3AA6E636961208F
:1022220064652067657261C3A7C3A36F20652065DB
:102232006C65747269636964616465206465206DAC
:102242006F746F722044432E004566696369656E40
:10225200636961206D6F746F720044432067657219
:1022620061646F72202076312E30004D6F746F7270
:1022720020443A200053656E7469646F3A20486FB7
:1022820072C3A172696F00202020202020207C20B0
:10229200200053656E7469646F3A20416E74692D33
:1022A200486F72C3A172696F0056656C6F6369648F
:1022B2006164653A20002052504D004D6F746F7278
:1022C20020453A200054656E73C3A36F20646120D9
:1022D200626174657269613A200020560054656E2D
:1022E20073C3A36F2061706C696361646120616F65
:1022F200206D6F746F723A200054656E73C3A36FC2
:10230200206765726164613A20002020202020202D
:102312002020202020207C20004566696369C3AA12
:102322006E63696120646F2067657261646F723ADF
:102332002000202500566D3D200056673D200045B7
:0C23420066696369656E636961200000D4
:00000001FF
